:0400000080311B2808
:1000060008007E14803100308600003087004E01E3
:10001600171E0E280F2816280D1E1228132816281C
:100026008731EC2780319231912280317E10090090
:1000360080311D28FA01FB014001EB01EC01ED01C5
:10004600EE01EF01CD308400003085000B308831A1
:100056000020803120308400013085004030883116
:10006600002080317E1040018031392891310421F1
:10007600803101309131612180319331AD2380315E
:1000860091317A21803193317C23803193314B2316
:1000960080310B178B176A30F200913114218031B1
:1000A600003A0319572858284E286230F300993031
:1000B600F4009131942180317C2E013091316121FF
:1000C60080312C30F3009830F40091319421803146
:1000D60094317824803100309031982080315B3023
:1000E600F3009930F4009131942180315830400169
:1000F600DC000230DD006430DE000030DF008831D5
:100106003C2080314E2802309131612180313B30D4
:10011600F3009830F40091319421803194317824A1
:10012600803100309031982080315B30F300993077
:10013600F400913194218031792803309131612185
:1001460080314A30F3009830F400913194218031A7
:1001560094312C24803101309031982080315B30ED
:10016600F3009930F40091319421803179280430DC
:100176009131612180315930F3009830F40091318A
:100186009421803194317824803100309031982048
:1001960080315B30F3009930F40091319421803145
:1001A6003C304001DC000030DD006430DE00003011
:1001B600DF0088313C2080314E28053091316121A5
:1001C60080316830F3009830F40091319421803109
:1001D60094317824803100309031982080315B3022
:1001E600F3009930F400913194218031D328063000
:1001F6009131612180317730F3009830F4009131EC
:1002060094218031943178248031003090319820C7
:1002160080315B30F3009930F400913194218031C4
:10022600D32807309131612180318630F300983030
:10023600F40091319421803194312C2480310130A5
:100246009031982080315B30F3009930F400913181
:1002560094218031D3280830913161218031953045
:10026600F3009830F4009131942180319431782450
:10027600803100309031982080315B30F300993026
:10028600F400913194218031D3283F30F300993026
:10029600F4009131942180314E2801304101D7007C
:1002A60090319D2080319131F52180311C30F30051
:1002B6009830F4009131942180314E284330D90092
:1002C600FA30D8000030D7000030D6009631EB2641
:1002D6008031EA30F3009830F40091319421803176
:1002E6004E2890319D2080313330F3009930F40050
:1002F6009131942180314E284130D900A030D80068
:100306000030D7000030D6009631EB26803104301D
:10031600F3009830F4009131942180314E28413019
:10032600D900A030D8000030D7000030D600963172
:10033600EB268031DC30F3009830F40091319421C3
:1003460080310130913161218031943178248031BE
:1003560000309031982080316830F3009930F400F5
:1003660091319421803158304001DC000230DD00AB
:100376006430DE000030DF0088313C2080314101EE
:1003860057080319C729C829CC2990319D208031E7
:100396004E280230913161218031943178248031A8
:1003A60000309031982080316D30F3009930F400A0
:1003B60091319421803158304001DC000230DD005B
:1003C6006430DE000030DF0088313C20803141019E
:1003D60057080319EF29F029F129C829033091316B
:1003E6006121803194312C24803101309031982064
:1003F60080317230F3009930F400913194218031CC
:1004060058304001DC000230DD006430DE00003090
:10041600DF0088313C208031410157080319142A36
:10042600152A162AC8290530913161218031943167
:100436007824803100309031982080317730F30075
:100446009930F40091319421803158304001DC001C
:100456000230DD006430DE000030DF0088313C20F1
:100466008031410157080319392A3A2A3B2AC829FB
:100476000630913161218031943178248031003009
:100486009031982080317C30F3009930F40091311E
:100496009421803158304001DC000230DD006430A8
:1004A600DE000030DF0088313C20803141015708F2
:1004B60003195E2A5F2A602AC82907309131612113
:1004C600803194312C248031013090319820803154
:1004D6008130F3009930F400913194218031583005
:1004E6004001DC000230DD006430DE000030DF0059
:1004F60088313C208031410157080319832A842A18
:10050600852AC82990319D2080312730F300993003
:10051600F4009131942180314E284130D900A03029
:10052600D8000030D7000030D6009631EB26803157
:10053600A430F3009830F4009131942180310130D9
:1005460091316121803194317824803100309031AD
:10055600982080316830F3009930F400913194216D
:10056600803158304001DC000230DD006430DE00AE
:100576000030DF0088313C208031410157080319E3
:10058600C52AC62AC72AC82902309131612180317D
:1005960094317824803100309031982080316D304C
:1005A600F3009930F40091319421803158304001A4
:1005B600DC000230DD006430DE000030DF00883110
:1005C6003C208031410157080319EA2AEB2AEC2A1C
:1005D600C829033091316121803194312C24803136
:1005E60001309031982080317230F3009930F40058
:1005F60091319421803158304001DC000230DD0019
:100606006430DE000030DF0088313C20803141015B
:10061600570803190F2B102B112BC82905309131C0
:1006260061218031943178248031003090319820D6
:1006360080317730F3009930F40091319421803184
:1006460058304001DC000230DD006430DE0000304E
:10065600DF0088313C208031410157080319342BD3
:10066600352B362BC82906309131612180319431E2
:100676007824803100309031982080317C30F3002E
:100686009930F40091319421803158304001DC00DA
:100696000230DD006430DE000030DF0088313C20AF
:1006A6008031410157080319592B5A2B5B2BC82956
:1006B600073091316121803194312C248031013011
:1006C6009031982080318130F3009930F4009131D7
:1006D6009421803158304001DC000230DD00643066
:1006E600DE000030DF0088313C20803141015708B0
:1006F60003197E2B7F2B802BC82990319D208031BA
:10070600F730F3009830F4009131942180314E286F
:100716004130D900A030D8000030D7000030D600D4
:100726009631EB268031B230F3009830F4009131E7
:1007360094218031013091316121803194317824C6
:10074600803100309031982080316830F300993044
:10075600F40091319421803158304001DC000230A0
:10076600DD006430DE000030DF0088313C2080315F
:10077600410157080319C02BC12BC22BC8290230CF
:10078600913161218031943178248031003090316B
:10079600982080316D30F3009930F4009131942126
:1007A600803158304001DC000230DD006430DE006C
:1007B6000030DF0088313C208031410157080319A1
:1007C600E52BE62BE72BC8290330913161218031D7
:1007D60094312C2480310130903198208031723050
:1007E600F3009930F4009131942180315830400162
:1007F600DC000230DD006430DE000030DF008831CE
:100806003C2080314101570803190A2C0B2C0C2C73
:10081600C8290530913161218031943178248031A5
:1008260000309031982080317730F3009930F40011
:1008360091319421803158304001DC000230DD00D6
:100846006430DE000030DF0088313C208031410119
:10085600570803192F2C302C312CC829063091311A
:100866006121803194317824803100309031982094
:1008760080317C30F3009930F4009131942180313D
:1008860058304001DC000230DD006430DE0000300C
:10089600DF0088313C208031410157080319542C70
:1008A600552C562CC829073091316121803194315D
:1008B6002C24803101309031982080318130F30032
:1008C6009930F40091319421803158304001DC0098
:1008D6000230DD006430DE000030DF0088313C206D
:1008E6008031410157080319792C7A2C7B2CC829B1
:1008F60090319D2080310330F3009930F40091311E
:10090600942180314E284130D900A030D8000030E3
:10091600D7000030D6009631EB268031C030F30088
:100926009830F40091319421803101309131612168
:100936008031943178248031003090319820803194
:100946006830F3009930F4009131942180315830A9
:100956004001DC000230DD006430DE000030DF00E4
:1009660088313C208031410157080319BB2CBC2C2F
:10097600BD2CC8290230913161218031943178240F
:10098600803100309031982080316D30F3009930FD
:10099600F40091319421803158304001DC0002305E
:1009A600DD006430DE000030DF0088313C2080311D
:1009B600410157080319E02CE12CE22CC829033029
:1009C60091316121803194312C2480310130903174
:1009D600982080317230F3009930F40091319421DF
:1009E600803158304001DC000230DD006430DE002A
:1009F6000030DF0088313C2080314101570803195F
:100A0600052D062D072DC82905309131612180312C
:100A160094317824803100309031982080317730BD
:100A2600F3009930F400913194218031583040011F
:100A3600DC000230DD006430DE000030DF0088318B
:100A46003C2080314101570803192A2D2B2D2C2DCE
:100A5600C829063091316121803194317824803162
:100A660000309031982080317C30F3009930F400CA
:100A760091319421803158304001DC000230DD0094
:100A86006430DE000030DF0088313C2080314101D7
:100A9600570803194F2D502D512DC8290730913174
:100AA6006121803194312C2480310130903198209D
:100AB60080318130F3009930F400913194218031F6
:100AC60058304001DC000230DD006430DE000030CA
:100AD600DF0088313C208031410157080319742D0D
:100AE600752D762DC82990319D2080310F30F30069
:100AF6009930F4009131942180314E284130D9004B
:100B0600A030D8000030D7000030D6009631EB2652
:100B16008031CE30F3009830F40091319421803149
:100B26000130913161218031943178248031003057
:100B36009031982080316830F3009930F40091317B
:100B46009421803158304001DC000230DD006430F1
:100B5600DE000030DF0088313C208031410157083B
:100B66000319B62DB72DB82DC82902309131612150
:100B76008031943178248031003090319820803152
:100B86006D30F3009930F400913194218031583062
:100B96004001DC000230DD006430DE000030DF00A2
:100BA60088313C208031410157080319DB2DDC2DAB
:100BB600DD2DC829033091316121803194312C24F7
:100BC600803101309031982080317230F3009930B5
:100BD600F40091319421803158304001DC0002301C
:100BE600DD006430DE000030DF0088313C208031DB
:100BF600410157080319002E012E022EC82905307F
:100C060091316121803194317824803100309031E6
:100C1600982080317730F3009930F4009131942197
:100C2600803158304001DC000230DD006430DE00E7
:100C36000030DF0088313C2080314101570803191C
:100C4600252E262E272EC829063091316121803186
:100C560094317824803100309031982080317C3076
:100C6600F3009930F40091319421803158304001DD
:100C7600DC000230DD006430DE000030DF00883149
:100C86003C2080314101570803194A2E4B2E4C2E29
:100C9600C829073091316121803194312C2480316B
:100CA60001309031982080318130F3009930F40082
:100CB60091319421803158304001DC000230DD0052
:100CC6006430DE000030DF0088313C208031410195
:100CD600570803196F2E702E712EC82990319D204A
:100CE60080311B30F3009930F4009131942180312A
:100CF6004E2840016A08003A03194829113A031997
:100D06006028033A03198628013A0319A028073AEE
:100D16000319BA28013A0319E028033A0319FA28F5
:100D2600013A031914290F3A03192E29383A0319DF
:100D36006129013A03197429053A03197F29013AF1
:100D460003199229033A0319902A013A03198B2BA6
:100D56000F3A0319862C013A03195029193A031937
:100D6600812D4E2880311B284001AD01AE01270898
:100D760086008701403FA900413FAA002908840058
:100D86002A0885001200253A031DCA2ECB2EC52F30
:100D96002708860087010130810741310318810A3F
:100DA6004101CF01D0010030D500FF30D100FF3026
:100DB600D2004001270886008701403FB300413F2B
:100DC600B40033088400340885000008B500F52E09
:100DD6000130B3070030B43DFD2E6930B500FD2E5D
:100DE600B501FD2E35086C3A0319EB2E193A031995
:100DF600F02EF32E33088400340885001200753A6D
:100E0600031D062F072FBA2F2C2F280886008701CF
:100E160001088400850102308107003FA900013FD7
:100E2600AA002908AF002A08B000B101B201342F88
:100E3600280886008701010884008501043081079F
:100E4600003FAF00013FB000023FB100033FB200D8
:100E5600342F3508693A0319082F053A03191B2F51
:100E6600342F3308013EA9000030343DAA0027087C
:100E7600860087012908C03F2A08C13FB12F2030CC
:100E8600B5000130B5023508203E860001308700E6
:100E96000030F5000030F4000030F3000A30F200B4
:100EA6003208F9003108F8003008F7002F08F6007C
:100EB6009331E32386317208303E81000030F5001D
:100EC6000030F4000030F3000A30F200400132082E
:100ED600F9003108F8003008F7002F08F6009431C1
:100EE600CD24863175084001B2007408B10073083C
:100EF600B0007208AF000130AD070030AE3D3208D9
:100F0600310430042F040319892F8A2FA62F3508A0
:100F1600031D8E2F8F2F442FA62F3508203E8600C7
:100F2600013087000108A900AA012908F2002A0851
:100F3600F3002608F5002508F400953126258631AC
:100F460001304001B50720303506031DAB2FAC2F0D
:100F5600902F2E08A6002D08A500EB2F330884003D
:100F6600340885000008753A0319422FBA2F27085E
:100F7600860087010130810741310318810AA501E6
:100F8600A601EB2F270886008701403FA900413FB5
:100F9600AA00290884002A0885000008AB00AC01D5
:100FA6002B08F2002C08F3002608F5002508F400AB
:100FB60095312625863140012708860087010130B4
:100FC600810741310318810A0130A5000030A600CF
:100FD600080030309031BE2087310A309031BE2073
:100FE600873142011908F1009031AC208731710830
:100FF600FB0001304001ED00080064008001013172
:10100600890B0128003400304001A3000030A20003
:101016000030A1000030A000721C122813281C28E2
:1010260076084001A0077708A13D7808A23D790817
:10103600A33D0130F635F70DF80DF90D890B1D2886
:101046000130F536F40CF30CF20C890B24287508E4
:10105600740473047204031D312832280F284001DA
:101066002308F5002208F4002108F3002008F20006
:1010760008004101CC01D701C801C9010229CC30C1
:10108600F200913114218831003A03194B284C287B
:10109600542841014C08031D512852285428013078
:1010A600D70041015708031959285A286528913154
:1010B600F52188314A30F3009930F40091319421BA
:1010C60088311A294808F2004908F300F401F501AD
:1010D60040015E08F6005F08F700F801F901883163
:1010E6000620883175084101C3007408C2007308E0
:1010F600C1007208C00056030319822883288C2871
:1011060092311922883175084101C7007408C6005A
:10111600942892316722883175084101C700740806
:10112600C600A0304001BE002030BF000030C00025
:101136005330C1009930C200410143084001C60046
:10114600410142084001C500410141084001C40077
:10115600410140084001C300410147084001C80061
:10116600410146084001C7009531EE25883140010E
:101176003F084101C50040013E084101C400CA01C3
:10118600CB01D32841014A08A03E86008701010809
:101196009031C820883101304101CA070030CB3D6B
:1011A6004B08803A4001E00041014508803A400181
:1011B6006002031DE128410144084A02031CE42899
:1011C600E528C52840015F08F4005E08F300923167
:1011D600BE228831410157080319F228F328FE2858
:1011E6009131F52188314A30F3009930F40091317C
:1011F600942188311A290130C8070030C93D4001C1
:101206005D0841014902031D0C2940015C084101AA
:101216004802031C0F2910294228FE30F30098309B
:10122600F4009131942188319131F52188310800FB
:1012360049304001C7007430C6002430C500003074
:10124600C4004108B5004008B4003F08B3003E089A
:10125600B2003D30B900CC30B800CC30B700CD304C
:10126600B60097317527893103183A293B29442955
:101276003D304001C100CC30C000CC30BF00CD3085
:10128600BE004030F5000030F4000030F3000030BE
:10129600F20040014708F9004608F8004508F70043
:1012A6004408F6008A311522893175084001B500D7
:1012B6007408B4007308B3007208B2004108B9009C
:1012C6004008B8003F08B7003E08B60097317527BA
:1012D600893103186F2970298D294030F5000030B7
:1012E600F4000030F3000030F20040014708F90036
:1012F6004608F8004508F7004408F6008A3115222A
:10130600893175084001C1007408C0007308BF0028
:101316007208BE0040014108F5004008F4003F088D
:10132600F3003E08F2004708F9004608F8004508B1
:10133600F7004408F6008A31152289317508400104
:10134600CB007408CA007308C9007208C8004B08AD
:10135600B5004A08B4004908B3004808B2003F3057
:10136600B9008030B8000030B7000030B6009731C1
:10137600752789310318C029C129CA293F30400180
:10138600CB008030CA000030C9000030C8004730AA
:101396004001B5007F30B400FF30B3000030B2002A
:1013A6004B08B9004A08B8004908B7004808B60013
:1013B6009731752789310318E129E229EB2947304E
:1013C6004001CB007F30CA00FF30C9000030C800A2
:1013D60040014B08F9004A08F8004908F700480898
:1013E600F6003F30F5000030F4000030F300003026
:1013F600F2008B31B923893175084001AF007408BA
:10140600AE007308AD007208AC0095317F258931B6
:101416004001C201C3012C084202BE002D08433B15
:10142600BF000800790880394001A9007935B0006D
:10143600F81F1E2A1F2A202A301430080319242ACE
:10144600252A352A300A031D292A2A2A322A00305B
:10145600F9000030F8000030F7000030F600F81709
:10146600F9013D2A0030F9000030F8000030F7009D
:101476000030F60075088039A9067535B100F41FED
:10148600452A462A472A3114310803194B2A4C2A81
:101496005C2A310A031D502A512A592A0030F500C8
:1014A6000030F4000030F3000030F200F417F501CC
:1014B600642A0030F5000030F4000030F3000030FC
:1014C600F2007508740473047204031D6B2A6C2AF7
:1014D600832A0030F9000030F8000030F7000030B1
:1014E600F6008030F8047F30F9042908F9047908F9
:1014F600F5007808F4007708F3007608F200B82BB8
:101506003008031D872A882A912A0030F50000300A
:10151600F4000030F3000030F200B82B3008A000D1
:10152600A1012108A30031082002A200031CA30385
:1015360022087F3EAA000030233DAB007908A800B0
:101546007808A7007708A6007608A5000030F900FD
:101556000030F8000030F7000030F6000030AF0031
:101566000030AE000030AD000030AC00B101F72A0B
:1015760031080319BF2AC02ADA2A0130A535A60D7B
:10158600A70DA80D890BC12A0130F635F70DF80D08
:10159600F90D890BC82AAF1FD12AD22AD32A76146D
:1015A6000130AC35AD0DAE0DAF0D890BD42A7508E3
:1015B6002802031DE82A74082702031DE82A730877
:1015C6002602031DE82A72082502031CEB2AEC2AD0
:1015D600F52A2F177208A5027308A63B7408A73BC5
:1015E6007508A83B0130B1071A303102031CFC2AEA
:1015F600FD2ABB2A28082704260425040319042BE0
:10160600052B1E2B2C141E2B0130F635F70DF80D6D
:10161600F90D890B082BAF1F112B122B132B7614E8
:101626000130AC35AD0DAE0DAF0D890B142BFF306F
:10163600AA07FF30AB3DF81F212B222B072BB10148
:10164600AF1F262B272B432BFF302C05A000FF3086
:101656002D05A100FF302E05A2007F302F05A30027
:10166600230822042104200403193A2B3B2B3E2B8A
:101676000130B100432B761C412B422B432B3B2BD5
:1016860031080319472B482B6E2B0130F607003023
:10169600F73DF83DF93D791C512B522B6E2B760800
:1016A600A0007708A1007808A2007908A3000130FD
:1016B600A400A337A20CA10CA00CA40B5C2B23083E
:1016C600F9002208F8002108F7002008F60001308A
:1016D600AA070030AB3D2B08803AA00080302002DC
:1016E600031D772BFF302A02031C7A2B7B2B882BBA
:1016F600FF304001AA000030AB000030F900003096
:10170600F8000030F7000030F60040012B08803A60
:10171600A00080302002031D922B01302A020318FC
:10172600952B962BA22B4001AA01AB010030F900A4
:101736000030F8000030F7000030F600A901400143
:101746002A08B000301CA82BA92BAB2BF817AD2B01
:101756007F30F8053008A0000130A036890BB02B89
:101766002008F9002908F9047A2A08007508803942
:101776004001A8007535AA00F41FC22BC32BC42B49
:101786002A142A080319C82BC92BD92B2A0A031D88
:10179600CD2BCE2BD62B0030F5000030F4000030D8
:1017A600F3000030F200F417F501E12B0030F500EC
:1017B6000030F4000030F3000030F2007908803980
:1017C600A900290828060319E92BEA2BEB2B281771
:1017D6007935A900F81FF02BF12BF22B29142908D3
:1017E6000319F62BF72B072C290A031DFB2BFC2BC1
:1017F600042C0030F9000030F8000030F70000300B
:10180600F600F817F9010F2C0030F9000030F80047
:101816000030F7000030F6002A0829020318142CBD
:10182600152C392C281F182C192C1B2C8030A80697
:101836002A08AB002908AA002B08A9007208AB00E9
:101846007608F2002B08F6007308AB007708F30061
:101856002B08F7007408AB007808F4002B08F80092
:101866007508AB007908F5002B08F900AB012908CB
:10187600A000A1012108A3002A082002A200031C3F
:10188600A3032308803AA40080302402031D4D2CB4
:101896001A302202031C502C512C872C7508740414
:1018A60073047204031D582C5A2C01305B2C003033
:1018B6004001AB000030F5000030F4000030F300CA
:1018C6000030F2002908AA008E2C2B1C6B2C6C2CE5
:1018D600762C2B08A0000130A036890B6F2C20082F
:1018E6000138AB00782C0310AB0C721C7B2C7C2CC3
:1018F6007D2CAB170130A000F537F40CF30CF20C7D
:10190600A00B7F2C0130AA07400129082A02031CDC
:101916008D2C8E2C682C281B912C922CCC2C2A08D2
:10192600031D962C972CA02C0030F5000030F400F7
:101936000030F3000030F200C42D7608F207770875
:10194600F33D7808F43D7908F53D751CAB2CAC2CBD
:10195600562D2B1CAF2CB02CBA2C2B08A000013016
:10196600A036890BB32C20080138AB00BC2C031021
:10197600AB0C721CBF2CC02CC12CAB170130A000C5
:10198600F537F40CF30CF20CA00BC32C0130AA07AC
:10199600562D7508803AA0007908803A2002031D6A
:1019A600DE2C78087402031DDE2C77087302031DF3
:1019B600DE2C760872020318E12CE22C172DFF307C
:1019C600A000FF30A100FF30A200FF30A300720884
:1019D6007602A4007308773BA5007408783BA6003E
:1019E6007508793BA7002408A0072508A13D26080D
:1019F600A23D2708A33D2308F5002208F40021088C
:101A0600F3002008F2008030A8062B03FF3AAB0053
:101A16002B08031D0F2D102D1F2D0130F20700304E
:101A2600F33DF43DF53D1F2D7608F2027708F33BB2
:101A36007808F43B7908F53B75087404730472045E
:101A4600031D262D272D522D2B08031D2B2D2C2D46
:101A5600522D0030F5000030F4000030F300003065
:101A6600F200C42D0130F235F30DF40DF50D890B9E
:101A7600362DAB1F3F2D402D412D72142B1C442DAE
:101A8600452D492D03142B0DAB004B2D0310AB0D2B
:101A96002A0803194F2D502D522D0130AA02F41F8A
:101AA600552D562D352DA901AB1F5A2D5B2D692DB0
:101AB6002B087F390319602D612D642D0130A90093
:101AC600692D721C672D682D692D612D2908031952
:101AD6006D2D6E2D972D0130F2070030F33DF43D4C
:101AE600F53D751C772D782D972D7208A00073088B
:101AF600A1007408A2007508A3000130A400A33752
:101B0600A20CA10CA00CA40B822D2308F500220820
:101B1600F4002108F3002008F2002A0A0319942D84
:101B2600952D972D0130AA072A0A03199B2D9C2D66
:101B3600A12D2A08031DA02DA12DAF2D0030F500E3
:101B46000030F4000030F3000030F2002A08031DD4
:101B5600AD2DAE2DAF2DA8012A1CB22DB32DB52D5E
:101B6600F417B72D7F30F4052A08A0000130A036FF
:101B7600890BBA2D2008F500A81FC22DC32DC42D30
:101B8600F5170800400128088039B2002835B8004A
:101B9600A71FCE2DCF2DD02D381438080319D42DDC
:101BA600D52DE42D380A031DD92DDA2DE22D00306E
:101BB600A8000030A7000030A6000030A500A71737
:101BC600EC2D0030A8000030A7000030A600003041
:101BD600A5002C088039B2062C35B300AB1FF42DB6
:101BE600F52DF62D331433080319FA2DFB2D0A2E85
:101BF600330A031DFF2D002E082E0030AC000030E6
:101C0600AB000030AA000030A900AB17122E00303E
:101C1600AC000030AB000030AA000030A900330849
:101C26000319162E172E1C2E3808031D1B2E1C2ECC
:101C3600252E0030A8000030A7000030A600003096
:101C4600A500FF2F2508F2002B089131D1218D31F7
:101C560073084001BE007208BD003D08AD00AE012C
:101C6600AF01B0013008B7002F08B6002E08B50046
:101C76002D08B4003E08AD00AE01AF01B00130083A
:101C8600BC002F08BB002E08BA002D08B900260894
:101C9600F2002A089131D1218D3173084001BE002E
:101CA6007208BD003D08AD00AE01AF01B0012D08C0
:101CB600B4072E08B53D2F08B63D3008B73D3E089F
:101CC600AD00AE01AF01B0012D08B9072E08BA3D2F
:101CD6002F08BB3D3008BC3D2708F200290891318A
:101CE600D1218D3173084001BE007208BD003D0848
:101CF600AD00AE01AF01B0012D08B4072E08B53D09
:101D06002F08B63D3008B73D3E08AD00AE01AF0125
:101D1600B0012D08B9072E08BA3D2F08BB3D300883
:101D2600BC3D0830B435B50DB60DB70D890B952EF3
:101D36002608F20029089131D1218D31730840011E
:101D4600BE007208BD003D08B4073E08B53D003030
:101D5600B63DB73D2508F2002A089131D1218D31D3
:101D660073084001BE007208BD003D08B4073E0876
:101D7600B53D0030B63DB73D0830B435B50DB60DAE
:101D8600B70D890BC02E2508F20029089131D12103
:101D96008D3173084001BE007208BD003D08B407CE
:101DA6003E08B53D0030B63DB73D2608F2002B088B
:101DB6009131D1218D3173084001BE007208BD00FA
:101DC6003D08B9073E08BA3D0030BB3DBC3D27087B
:101DD600F2002A089131D1218D3173084001BE00ED
:101DE6007208BD003D08B9073E08BA3D0030BB3D4C
:101DF600BC3D2708F2002B089131D1218D317308A3
:101E06004001BE007208BD003D08AD003E08AE00B0
:101E1600AF01B0010830AD35AE0DAF0DB00D890B79
:101E26000E2F2D08B9072E08BA3D2F08BB3D3008E6
:101E3600BC3D3408AD003508AE003608AF003708A3
:101E4600B0001830B036AF0CAE0CAD0C890B252F98
:101E56002D08B9072E08BA3D2F08BB3D3008BC3DFA
:101E66000830B435B50DB60DB70D890B342F3808CB
:101E76003307AD00AE01AE0D2D08823EBD00FF302A
:101E86002E3DBE005D2F0130B935BA0DBB0DBC0D20
:101E9600890B472FB71F502F512F522F391401305E
:101EA600B435B50DB60DB70D890B532FFF30BD07F1
:101EB600FF30BE3DBB1F602F612F462FB301B71FFA
:101EC600652F662F822FFF303405AD00FF303505B4
:101ED600AE00FF303605AF007F303705B000300862
:101EE6002F042E042D040319792F7A2F7D2F01300C
:101EF600B300822F391C802F812F822F7A2F33082F
:101F06000319862F872FAD2F0130B9070030BA3D50
:101F1600BB3DBC3D3C1C902F912FAD2F3908AD0029
:101F26003A08AE003B08AF003C08B0000130B100F3
:101F3600B037AF0CAE0CAD0CB10B9B2F3008BC000C
:101F46002F08BB002E08BA002D08B9000130BD07C6
:101F56000030BE3D3E08803AAD0080302D02031DA4
:101F6600B62FFF303D02031CB92FBA2FC42F7F3086
:101F76004001BC008030BB000030BA000030B90020
:101F8600F52F40013E08803AAD0080302D02031D3A
:101F9600CE2F01303D020318D12FD22FDD2F003076
:101FA6004001BC000030BB000030BA000030B90070
:101FB600B201F52F40013D08B800FF30B905FF30EA
:101FC600BA057F30BB050030BC05381CEB2FEC2F63
:101FD600ED2FBB173808AD000130AD36890BF02F59
:101FE6002D08BC003208BC043C08A8003B08A7002A
:0A1FF6003A08A6003908A50008000B
:10212A004E018D100800F20072084101D600080025
:10213A008B134001EF01EE019A108B170800F6018C
:10214A00F60AF701483092313F22903108004201E5
:10215A009D1CB028B128B4281D121D16FA010800CA
:10216A00F601F60AF701F70A483092313F22903118
:10217A000800F0004E018D1DC328C428BF2870082E
:10218A0042019A000800F2004E018D1DCD28CE288A
:10219A00C928720842019A0008004001A0002008DC
:1021AA00F6007908F700483092313F229031080052
:1021BA00F2007208031DE228E52840011A14E728F4
:1021CA0040011A1008009031F52090314301111591
:1021DA001119F028F128ED28903195209031080046
:1021EA00430111081F39031DFB28FC28F5280F1984
:1021FA00FF280029F52890319520903108007E01AA
:10220A004311C3114312C312003093311B2391317E
:10221A0040019912131193111312931208004001ED
:10222A006D08031919291A292229ED017208860055
:10223A0087017B0881000130232900300800292901
:10224A0000320032003200320130F2020030F33B39
:10225A00720A031D3429730A031D342935292529D5
:10226A0008000030F7000030F6000030F500453075
:10227A00F4000130F4020030F53BF63BF73B7508F9
:10228A00F3007408F2000800F2009031F520913151
:10229A00720843018C000F18532954295029903190
:1022AA00952091319031F520913103104301111F8E
:1022BA0003140030093D0800F7007708031966295E
:1022CA006729792909307702031C6C296D296E293F
:1022DA0079297708FF3EF600400199127608933172
:1022EA001B239131400199160800400194177E0181
:1022FA00CE1752018C1703308C040C1F85298629AE
:10230A00822941019E019E1770309E0403309E046B
:10231A009D011D0803395C389D001D140800A12980
:10232A00730884007408850000089031C820913130
:10233A000130F3070030F43D730874040319A62929
:10234A00A729B02973088400740885001200031DA8
:10235A00AF29B02995290800F40074357304F500F3
:10236A009031F5209131430111141118BD29BE296C
:10237A00BA299031952091317508913149219131CD
:10238A00003A031DC929CA29CF299031E820913181
:10239A000030D029013008004001A400A001A101A9
:1023AA007208F400F5017408A2007508A300241C41
:1023BA00DF29E029E4292208A0072308A13D0130EA
:1023CA00A235A30D890BE5290310A40C2408031DCB
:1023DA00EF29F029DC292108F3002008F20008007F
:1023EA009031A4209131003A031DFC29FD29FE29D0
:1023FA00182A8330F90012309031D2209131003AF4
:10240A00031D082A092A0A2A182AF90112309031CA
:10241A00D2209131003A031D132A142A152A182AA8
:10242A009031B5209131080041011D0803395C380B
:10243A009D001430F2000030F300913124219231D2
:10244A0041019D149D182A2A2B2A272A1C081B0899
:10245A001430F2000030F30091312421923141010D
:10246A009D149D18392A3A2A362A1C08F5001B0899
:10247A00F4000800F800F30178089131B121923193
:10248A00003A031D492A4A2A4C2A0030662A76084D
:10249A00913149219231003A0319542A552A5E2A68
:1024AA007708913149219231003A031D5D2A5E2A4B
:1024BA00622A9031E82092314A2A9031E8209231FA
:1024CA0001300800400192147E01B81441011D0830
:1024DA00033904389D001430F2000030F3009131C2
:1024EA002421923141019D149D187C2A7D2A792A42
:1024FA001C081B081430F2000030F300913124212B
:10250A00923141019D149D188B2A8C2A882A1C0815
:10251A00F5001B08F40008004E01971E952A962A1A
:10252A00BD2A8D1E992A9A2ABD2A8D1240016C084D
:10253A0044018D0040016B0844018C0040016F0882
:10254A000319A82AA92ABB2A6E080319AD2AAF2A99
:10255A000130B02A0030EE006E08031DB52AB82AF1
:10256A0040019A14BA2A40019A10BD2AEE019A1023
:10257A000800F801F601F701E12A0B30F500623094
:10258A00890BC52AF50BC52A00327830F200913141
:10259A0014219231003A0319D32AD42ADD2A780861
:1025AA00031DD82AD92ADD2A01304101D700EB2A96
:1025BA000130F6070030F73D74087702031DE72A59
:1025CA0073087602031CEA2AEB2AC22A0800400191
:1025DA003908BD003808BC004101CD01CE01082BE5
:1025EA003708A6003608A5003C30A7003A08A8001C
:1025FA008631B7269231400125084101CD074001B5
:10260A0026084101CE3D40013C0884003D08850072
:10261A001200031D112B122BF52A41014E0840010D
:10262A00B70041014D084001B6000800F4007408E3
:10263A000739F50075080139F200F20DF20D400173
:10264A0019087206FB39720699007508F200013002
:10265A00F236890B2D2B72080139F300F30DF30DB5
:10266A00F30D19087306F739730699007508F20015
:10267A000230F236890B3E2B72080139F300F30E51
:10268A0019087306EF397306990008007E014E1087
:10269A00CE1040011A109A10141094100130903183
:1026AA00DD20933101304401910030308E040E1543
:1026BA000E1040304001C1000030C0000030BF00A1
:1026CA000030BE0089311B21933140013F08EC00E4
:1026DA003E08EB006C0844018D0040016B08440180
:1026EA008C004E018D12971644010E1408008B13AC
:1026FA0055307D018F00AA308F000F108B171530CF
:10270A00CB0005307E01A6008B1355307D018F006A
:10271A00AA308F000F148B174001941614137E01F0
:10272A00CE124E139131362193317308F900720893
:10273A00F80042011E121E159F1579089C007808A0
:10274A009B009D171D169E164E011716FA010800CA
:10275A008B1355307D018F00AA308F000F108B1715
:10276A001330C5001430C60007307E01A3000830BC
:10277A00A400CE114E124001941514169A151A1679
:10278A00430190120C089031952093314F30430148
:10279A008D0080308F0028309000910192018030A6
:1027AA008F0028309000910192018B1355307D01E2
:1027BA008F00AA308F000F148B1708007508740455
:1027CA00730472040319EA2BEB2B232C013040010A
:1027DA00A000F82B0130F235F30DF40DF50D890B3D
:1027EA00F02B0130A007F51FFB2BFC2BEF2B7508F4
:1027FA007902031D0A2C74087802031D0A2C730837
:10280A007702031D0A2C72087602031C0D2C0E2C6B
:10281A00162C7208F6027308F73B7408F83B750821
:10282A00F93B0130F536F40CF30CF20C890B172C3A
:10283A000130A002031D222C232CFC2B7908F50061
:10284A007808F4007708F3007608F200080090315F
:10285A00A4209431003A031D332C342C352C772CC8
:10286A0034304001A100F130890B392CA10B392CED
:10287A0000321B30F90010309031D2209431003AE6
:10288A00031D482C492C4A2C772C4030F900113072
:10289A009031D2209431003A031D542C552C562CD9
:1028AA00772C34304001A100F130890B5A2CA10B4E
:1028BA005A2C00320230F90012309031D220943171
:1028CA00003A031D692C6A2C6B2C772C343040019A
:1028DA00A100F130890B6F2CA10B6F2C00329031C3
:1028EA00B520943108009031A4209431003A031D98
:1028FA007F2C802C812CCC2C34304001A100F1306B
:10290A00890B852CA10B852C00321B30F900103065
:10291A009031D2209431003A031D942C952C962C98
:10292A00CC2C34304001A100F130890B9A2CA10B38
:10293A009A2C00324230F90011309031D220943171
:10294A00003A031DA92CAA2CAB2CCC2C3430400104
:10295A00A100F130890BAF2CA10BAF2C0032033050
:10296A00F90012309031D2209431003A031DBE2C66
:10297A00BF2CC02CCC2C34304001A100F130890B83
:10298A00C42CA10BC42C00329031B520943108001C
:10299A0000304001A3000030A2000030A100003046
:1029AA00A00075087404730472040319DD2CDE2C6C
:1029BA001D2D0130A400EA2C0130F235F30DF40D7F
:1029CA00F50D890BE22C0130A407F51FED2CEE2C36
:1029DA00E12C0130A035A10DA20DA30D890BEF2C1E
:1029EA0075087902031D032D74087802031D032D4F
:1029FA0073087702031D032D72087602031C062D45
:102A0A00072D102D7208F6027308F73B7408F83B7D
:102A1A007508F93B20140130F536F40CF30CF20C6E
:102A2A00890B112D0130A402031D1C2D1D2DEE2C26
:102A3A002308F5002208F4002108F3002008F20018
:102A4A0008007408750403192B2D2C2D322D7408D7
:102A5A007504031D312D322D372D72088031032064
:102A6A0095317E2D740886008701493116000104CC
:102A7A000319402D412D602D7408860087014931C4
:102A8A00403F4001A000413FA10074088600870131
:102A9A004231403FA200413FA3002308803AA400EC
:102AAA002108803A2402031D5C2D20082202031803
:102ABA005F2D602D7E2D74088600870142317408CF
:102ACA00840075088500003F4001A000013FA10075
:102ADA00403F20078400413F213D85007208800065
:102AEA007408860087014231013081074131031899
:102AFA00810A0800031040012E0D2F0DB50035087C
:102B0A00031D882D892D922D0030AF000030AE00B4
:102B1A000030AD000030AC00ED2D2C08B0002D08BF
:102B2A00B1002E08B2002F08B3001F30B336B20C22
:102B3A00B10CB00C890B9B2D3008B400AE17FF30D6
:102B4A00AC05FF30AD05FF30AE050030AF0596305D
:102B5A00B502B51FB12DB22DC82D3508803A973E62
:102B6A000318B82DB92DBA2D892D0130AF36AE0C08
:102B7A00AD0CAC0C890BBB2D0130B507031DC62D5E
:102B8A00C72DBA2DDD2D20303502031CCD2DCE2DBB
:102B9A00D82D892D0130AC35AD0DAE0DAF0D890B99
:102BAA00D02D0130B5023508031DDC2DDD2DCF2DCA
:102BBA0034080319E12DE22DED2DAC09AD09AE095A
:102BCA00AF09AC0A0319AD0A0319AE0A0319AF0A11
:102BDA000800803040014002003003193F02031C04
:102BEA00F72DF82D032E4B304101D3000030D400CD
:102BFA00FF304001BE00FF30BF00682E4330CE00D8
:102C0A003E08D100D20100304002023003193F02CF
:102C1A00031C102E112E1A2E3F08FF3EDA00FF3039
:102C2A00403DDB00D301D401222E0130DA0000300E
:102C3A00DB000130D3000030D4005130B600003040
:102C4A00B7004208B9004108B8004E30BA009231C4
:102C5A00EC22953140013708D0003608CF003F08F2
:102C6A0040040319392E3A2E642ED01B3D2E3E2ED7
:102C7A00642E3F08FF3EC900FF30403DCA0050089D
:102C8A00803ACB004A08803A4B02031D4E2E49086F
:102C9A004F02031C512E522E5A2E40013F08FF3E6E
:102CAA00CC00FF30403DCD005F2E40015008CD00E2
:102CBA004F08CC003E084C07860087018101500866
:102CCA00BF004F08BE00080040014F08B5004E087B
:102CDA00B4004D08B3004C08B2003D30B9004C3086
:102CEA00B800CC30B700CD30B60097317527963191
:102CFA000318802E812E8A2E3D304001CF004C30A1
:102D0A00CE00CC30CD00CD30CC0044304001B500EF
:102D1A00FA30B4000030B3000030B2004F08B900F6
:102D2A004E08B8004D08B7004C08B6009731752711
:102D3A0096310318A12EA22EAB2E44304001CF00AB
:102D4A00FA30CE000030CD000030CC0040304001D7
:102D5A00A8000030A7000030A6000030A5004F08E8
:102D6A00AC004E08AB004D08AA004C08A9008D31F2
:102D7A00C525963140012808D3002708D200260825
:102D8A00D1002508D0005308C1005208C0005108DC
:102D9A00BF005008BE0089311B21963140013F080F
:102DAA00D5003E08D4008B135508EC005408EB00FC
:102DBA00550844018D004001540844018C0040012B
:102DCA00EE019A100130EF008B17080046304001DF
:102DDA00DD004830DC000030DB000030DA00590842
:102DEA00B5005808B4005708B3005608B2000030BE
:102DFA00B9000030B8000030B7000030B600973193
:102E0A007527963103180A2F0B2F142F0030400113
:102E1A00D9000030D8000030D7000030D600423048
:102E2A00F5005230F4000030F3000030F2004001A7
:102E3A005908F9005808F8005708F7005608F6002C
:102E4A008A311522963175084001E1007408E000C4
:102E5A007308DF007208DE005D08A8005C08A7009E
:102E6A005B08A6005A08A5006108AC006008AB0020
:102E7A005F08AA005E08A9008D31C5259631400178
:102E8A002808E5002708E4002608E3002508E200F0
:102E9A004230F5007030F4000030F3000030F200E8
:102EAA006508F9006408F8006308F7006208F6008C
:102EBA008A311522963175084001E9007408E80044
:102ECA007308E7007208E6006908CF006808CE00B8
:102EDA006708CD006608CC0096316926963108004D
:102EEA00003040013205BA0000303305BB008030A3
:102EFA003405BC007F303505BD003D083C043B0469
:102F0A003A04031D892F8A2F922F0030B500003012
:102F1A00B4000030B3000030B20000303605BA0009
:102F2A0000303705BB0080303805BC007F303905DA
:102F3A00BD003D083C043B043A04031DA52FA62FFF
:102F4A00AE2F0030B9000030B8000030B7000030B2
:102F5A00B600B51FB12FB22FCA2F0030BA00003009
:102F6A00BB000030BC008030BD003208BA02330812
:102F7A00BB3B3408BC3B3508BD3B3D08B5003C08AB
:102F8A00B4003B08B3003A08B200B91FCD2FCE2FC8
:102F9A00E62F0030BA000030BB000030BC008030A1
:102FAA00BD003608BA023708BB3B3808BC3B3908B3
:102FBA00BD3B3D08B9003C08B8003B08B7003A08D9
:102FCA00B6008030B5068030B90639083502031DCF
:102FDA00F82F38083402031DF82F37083302031D6F
:102FEA00F82F360832020318FB2FFC2FFE2F03108E
:102FFA00FF2F031408000034083407340034503417
:10300A0042345334203473346C346F34773420347C
:10301A00723469346E3473346534203473347434DE
:10302A00613472347434653464340A340034453497
:10303A004D3445345234473445344E34433459348C
:10304A005F34533454344F3450340A3400344334E4
:10305A0068342E3431342034733465346C34653436
:10306A0063347434653464340A3400344334683461
:10307A002E3432342034733465346C34653463341A
:10308A007434653464340A340034433468342E3476
:10309A0033342034733465346C34653463347434B3
:1030AA00653464340A340034433468342E34343496
:1030BA002034733465346C34653463347434653461
:1030CA0064340A340034433468342E3435342034BA
:1030DA00733465346C3465346334743465346434FD
:1030EA000A340034433468342E343634203473348A
:1030FA0065346C34653463347434653464340A3446
:10310A000034433468342E3437342034733465340D
:10311A006C34653463347434653464340A3400348A
:10312A00433468342E3438342034733465346C3480
:10313A00653463347434653464340A340034543482
:10314A005234493441344C3431345F345334543476
:10315A004134523454340A340034543452344934E5
:10316A0041344C3432345F3453345434413452345D
:10317A0054340A34003454345234493441344C34CB
:10318A0033345F34533454344134523454340A346B
:10319A000034533441344D3450344C3445345F3464
:1031AA00533454344134523454340A34003450348D
:1031BA00423453345F34423447345F3453345434E2
:1031CA004134523454340A3400344D346F34743434
:1031DA006F34723420347334743461347234743416
:1031EA000A34003454345234493441344C3431347E
:1031FA005F3445344E3444340A340034543452343F
:10320A00493441344C3432345F3445344E344434D6
:10321A000A34003454345234493441344C3433344B
:10322A005F3445344E3444340A3400345334413420
:10323A004D3450344C3445345F3445344E34443480
:10324A000A3400345034423453345F3442344734FD
:10325A005F3445344E3444340A3400344D346F34C8
:10326A0074346F3472342034733474346F34703479
:10327A000A34003463346134733465343A34303494
:10328A007834303430340A340034733474346F345C
:10329A0070347034653464340A34003425346C3440
:1032AA0075342C34253475340A34003442344534A8
:1032BA00473449344E340A340034523445344134A4
:1032CA0044340A3400344334483431340A34003440
:1032DA004334483432340A340034433448343334BF
:1032EA000A3400344334483435340A34003443341D
:1032FA00483436340A3400344334483437340A34D0
:10330A0000340034E634AA34483400344034CE342D
:10331A004434003400340034453400340834003472
:02332A0000346D
:020000040001F9
:04000E00CD2FE537D6
:04001400FF1FFF3F8C
:00000001FF
